:204404000A14B1000400B240805A5C01E2D22302C1430000C1430100C1430200F2D0700082
:204424000D02F2F08F000B02003C003C0343B01306E3003C003C0343B013A2E5003C003C01
:204444000343B0137AE5003C003C003C003C003C8C00101EB01350E52F00101EFF400B006B
:2044640000002F00101EFF40A1000100EF430900DF4201180A00DF4200180B00B01364E030
:204484003A409CFFF240A500610182436201B2403301640182436601B2F0F1FF6C0192D387
:2044A4006C01CC01B0132AE46F413FF0C1FF3F90410023200D143D4003001D83FE230D1676
:2044C4000343CC01B013CEE12F00101ECF4303005E4101007E808000CF4E0400CF4305008B
:2044E4006E417E808000CF4E0600CF4307005E4102007E808000CF4E08000A9306247C4088
:204504000700B013D8E81A53063C7C401600B013D8E83A409CFF7C400700B013DEE8B013E5
:1045240096D1B03F03430343FF3F03431C431001B1
:1E45340081000024B01330450C43B01304441C43B0132A4532D01000FD3F03430013FA
:02A1CC005045FC
:02A1CE005045FA
:02A1D0005045F8
:02A1D2005045F6
:02A1D4005045F4
:02A1D6005045F2
:02A1D8005045F0
:02A1DA005045EE
:02A1DC005045EC
:02A1DE005045EA
:02A1E0005045E8
:02A1E2005045E6
:02A1E4005045E4
:02A1E6005045E2
:02A1E8005045E0
:02A1EA005045DE
:02A1EC005045DC
:02A1EE005045DA
:02A1F0005045D8
:02A1F2005045D6
:02A1F4005045D4
:02A1F6004845DA
:02A1F8005045D0
:02A1FA005045CE
:02A1FC005045CC
:02A1FE003445E6
:00000001FF
